{
  "abi": [
    {
      "inputs": [
        {
          "internalType": "contract IEntryPoint",
          "name": "_entryPoint",
          "type": "address"
        }
      ],
      "stateMutability": "nonpayable",
      "type": "constructor"
    },
    {
      "inputs": [],
      "name": "accountImplementation",
      "outputs": [
        {
          "internalType": "contract aDAO",
          "name": "",
          "type": "address"
        }
      ],
      "stateMutability": "view",
      "type": "function"
    },
    {
      "inputs": [
        {
          "internalType": "address[]",
          "name": "owners",
          "type": "address[]"
        },
        {
          "internalType": "uint256",
          "name": "threshold",
          "type": "uint256"
        },
        {
          "internalType": "uint256",
          "name": "salt",
          "type": "uint256"
        }
      ],
      "name": "createAccount",
      "outputs": [
        {
          "internalType": "contract aDAO",
          "name": "ret",
          "type": "address"
        }
      ],
      "stateMutability": "nonpayable",
      "type": "function"
    },
    {
      "inputs": [
        {
          "internalType": "address[]",
          "name": "owners",
          "type": "address[]"
        },
        {
          "internalType": "uint256",
          "name": "threshold",
          "type": "uint256"
        },
        {
          "internalType": "uint256",
          "name": "salt",
          "type": "uint256"
        }
      ],
      "name": "getAddress",
      "outputs": [
        {
          "internalType": "address",
          "name": "",
          "type": "address"
        }
      ],
      "stateMutability": "view",
      "type": "function"
    }
  ],
  "bytecode": {
    "object": "0x60a060405234801561000f575f80fd5b506040516130dd3803806130dd83398101604081905261002e91610084565b8060405161003b90610077565b6001600160a01b039091168152602001604051809103905ff080158015610064573d5f803e3d5ffd5b506001600160a01b0316608052506100b1565b61268a80610a5383390190565b5f60208284031215610094575f80fd5b81516001600160a01b03811681146100aa575f80fd5b9392505050565b60805161097e6100d55f395f818160450152818160d501526101bf015261097e5ff3fe608060405234801561000f575f80fd5b506004361061003f575f3560e01c806311464fbe146100435780637afc12ff14610081578063bdbce80714610094575b5f80fd5b7f00000000000000000000000000000000000000000000000000000000000000005b6040516001600160a01b03909116815260200160405180910390f35b61006561008f3660046102d4565b6100a7565b6100656100a23660046102d4565b610190565b5f610186825f1b604051806020016100be90610298565b601f1982820381018352601f9091011660408190527f0000000000000000000000000000000000000000000000000000000000000000906360b5bb3f60e01b9061010e908a908a906024016103a3565b60408051601f19818403018152918152602080830180516001600160e01b03166001600160e01b0319909516949094179093525161014d939201610415565b60408051601f198184030181529082905261016b9291602001610456565b60405160208183030381529060405280519060200120610268565b90505b9392505050565b5f8061019d8585856100a7565b90506001600160a01b0381163b80156101b857509050610189565b60405184907f0000000000000000000000000000000000000000000000000000000000000000906360b5bb3f60e01b906101f8908a908a906024016103a3565b60408051601f198184030181529181526020820180516001600160e01b03166001600160e01b031990941693909317909252905161023590610298565b610240929190610415565b8190604051809103905ff590508015801561025d573d5f803e3d5ffd5b509695505050505050565b5f6101898383305f604051836040820152846020820152828152600b8101905060ff815360559020949350505050565b6104c48061048583390190565b634e487b7160e01b5f52604160045260245ffd5b80356001600160a01b03811681146102cf575f80fd5b919050565b5f805f606084860312156102e6575f80fd5b833567ffffffffffffffff808211156102fd575f80fd5b818601915086601f830112610310575f80fd5b8135602082821115610324576103246102a5565b8160051b604051601f19603f83011681018181108682111715610349576103496102a5565b60405292835281830193508481018201928a841115610366575f80fd5b948201945b8386101561038b5761037c866102b9565b8552948201949382019361036b565b9a918901359950506040909701359695505050505050565b604080825283519082018190525f906020906060840190828701845b828110156103e45781516001600160a01b0316845292840192908401906001016103bf565b50505092019290925292915050565b5f5b8381101561040d5781810151838201526020016103f5565b50505f910152565b60018060a01b0383168152604060208201525f82518060408401526104418160608501602087016103f3565b601f01601f1916919091016060019392505050565b5f83516104678184602088016103f3565b83519083019061047b8183602088016103f3565b0194935050505056fe60806040526040516104c43803806104c4833981016040819052610022916102d2565b61002d82825f610034565b50506103e7565b61003d8361005f565b5f825111806100495750805b1561005a57610058838361009e565b505b505050565b610068816100ca565b6040516001600160a01b038216907fbc7cd75a20ee27fd9adebab32041f755214dbc6bffa90cc0225b39da2e5c2d3b905f90a250565b60606100c3838360405180606001604052806027815260200161049d6027913961017d565b9392505050565b6001600160a01b0381163b61013c5760405162461bcd60e51b815260206004820152602d60248201527f455243313936373a206e657720696d706c656d656e746174696f6e206973206e60448201526c1bdd08184818dbdb9d1c9858dd609a1b60648201526084015b60405180910390fd5b7f360894a13ba1a3210667c828492db98dca3e2076cc3735a920a3ca505d382bbc80546001600160a01b0319166001600160a01b0392909216919091179055565b60605f80856001600160a01b031685604051610199919061039a565b5f60405180830381855af49150503d805f81146101d1576040519150601f19603f3d011682016040523d82523d5f602084013e6101d6565b606091505b5090925090506101e8868383876101f2565b9695505050505050565b606083156102605782515f03610259576001600160a01b0385163b6102595760405162461bcd60e51b815260206004820152601d60248201527f416464726573733a2063616c6c20746f206e6f6e2d636f6e74726163740000006044820152606401610133565b508161026a565b61026a8383610272565b949350505050565b8151156102825781518083602001fd5b8060405162461bcd60e51b815260040161013391906103b5565b634e487b7160e01b5f52604160045260245ffd5b5f5b838110156102ca5781810151838201526020016102b2565b50505f910152565b5f80604083850312156102e3575f80fd5b82516001600160a01b03811681146102f9575f80fd5b60208401519092506001600160401b0380821115610315575f80fd5b818501915085601f830112610328575f80fd5b81518181111561033a5761033a61029c565b604051601f8201601f19908116603f011681019083821181831017156103625761036261029c565b8160405282815288602084870101111561037a575f80fd5b61038b8360208301602088016102b0565b80955050505050509250929050565b5f82516103ab8184602087016102b0565b9190910192915050565b602081525f82518060208401526103d38160408501602087016102b0565b601f01601f19169190910160400192915050565b60aa806103f35f395ff3fe608060405236601057600e6013565b005b600e5b601f601b6021565b6057565b565b5f60527f360894a13ba1a3210667c828492db98dca3e2076cc3735a920a3ca505d382bbc546001600160a01b031690565b905090565b365f80375f80365f845af43d5f803e8080156070573d5ff35b3d5ffdfea26469706673582212202c9547f289f02ab9e1944595c264cad3039dbc430178c2988ce35194c28942e664736f6c63430008140033416464726573733a206c6f772d6c6576656c2064656c65676174652063616c6c206661696c6564a2646970667358221220b3842ab9245c73002f966af73369a374737fe2845a7b1d303d7f2aaebac53f2764736f6c6343000814003360c06040523060805234801562000014575f80fd5b506040516200268a3803806200268a833981016040819052620000379162000114565b6001600160a01b03811660a0526200004e62000055565b5062000143565b5f54610100900460ff1615620000c15760405162461bcd60e51b815260206004820152602760248201527f496e697469616c697a61626c653a20636f6e747261637420697320696e697469604482015266616c697a696e6760c81b606482015260840160405180910390fd5b5f5460ff908116101562000112575f805460ff191660ff9081179091556040519081527f7f26b83ff96e1f2b6a682f133852f6798a09c465da95921460cefb38474024989060200160405180910390a15b565b5f6020828403121562000125575f80fd5b81516001600160a01b03811681146200013c575f80fd5b9392505050565b60805160a0516124e6620001a45f395f8181610318015281816105e20152818161066601528181610a3701528181610acc0152610e0a01525f81816104d801528181610521015281816106f20152818161073201526107c301526124e65ff3fe60806040526004361061011d575f3560e01c80634f1ef2861161009d578063bc197c8111610062578063bc197c8114610342578063c399ec8814610370578063d087d28814610384578063e75235b814610398578063f23a6e61146103cb575f80fd5b80634f1ef2861461029857806352d1902d146102ab57806360b5bb3f146102bf578063a0e67e2b146102de578063b0d691fe146102ff575f80fd5b80633659cfe6116100e35780633659cfe6146102055780633a871cdd1461022457806344c028fe146102515780634a58db19146102715780634d44560d14610279575f80fd5b806223de291461012857806301ffc9a71461014e57806313ced88d14610182578063150b7a02146101a25780632f54bf6e146101e6575f80fd5b3661012457005b5f80fd5b348015610133575f80fd5b5061014c610142366004611931565b5050505050505050565b005b348015610159575f80fd5b5061016d6101683660046119da565b6103f7565b60405190151581526020015b60405180910390f35b610195610190366004611b9b565b610407565b6040516101799190611cf7565b3480156101ad575f80fd5b506101cd6101bc366004611d57565b630a85bd0160e11b95945050505050565b6040516001600160e01b03199091168152602001610179565b3480156101f1575f80fd5b5061016d610200366004611dc4565b610420565b348015610210575f80fd5b5061014c61021f366004611dc4565b6104ce565b34801561022f575f80fd5b5061024361023e366004611ddf565b6105b4565b604051908152602001610179565b61026461025f366004611e2d565b6105d2565b6040516101799190611e8b565b61014c6105e0565b348015610284575f80fd5b5061014c610293366004611e9d565b61065c565b61014c6102a6366004611ec7565b6106e8565b3480156102b6575f80fd5b506102436107b7565b3480156102ca575f80fd5b5061014c6102d9366004611f13565b610868565b3480156102e9575f80fd5b506102f2610977565b6040516101799190611f54565b34801561030a575f80fd5b506040516001600160a01b037f0000000000000000000000000000000000000000000000000000000000000000168152602001610179565b34801561034d575f80fd5b506101cd61035c366004611fe0565b63bc197c8160e01b98975050505050505050565b34801561037b575f80fd5b50610243610a18565b34801561038f575f80fd5b50610243610aa6565b3480156103a3575f80fd5b507f8c92395cd5137e684e0c30ec0e205b7d938574a1858934265875d8bb4a472c0654610243565b3480156103d6575f80fd5b506101cd6103e5366004612075565b63f23a6e6160e01b9695505050505050565b5f61040182610afb565b92915050565b606061041585858585610b4b565b90505b949350505050565b5f807f8c92395cd5137e684e0c30ec0e205b7d938574a1858934265875d8bb4a472c0460405163bd77f1d560e01b8152600481018290526001600160a01b038516602482015290915073__$3fef9df2457d5cac4efdb487fa63035151$__9063bd77f1d590604401602060405180830381865af41580156104a3573d5f803e3d5ffd5b505050506040513d601f19601f820116820180604052508101906104c791906120eb565b9392505050565b6001600160a01b037f000000000000000000000000000000000000000000000000000000000000000016300361051f5760405162461bcd60e51b81526004016105169061210a565b60405180910390fd5b7f00000000000000000000000000000000000000000000000000000000000000006001600160a01b03166105675f8051602061246a833981519152546001600160a01b031690565b6001600160a01b03161461058d5760405162461bcd60e51b815260040161051690612156565b61059681610c8d565b604080515f808252602082019092526105b191839190610c95565b50565b5f6105bd610dff565b6105c78484610e79565b90506104c782610fe2565b60606104158585858561102b565b7f000000000000000000000000000000000000000000000000000000000000000060405163b760faf960e01b81523060048201526001600160a01b03919091169063b760faf99034906024015f604051808303818588803b158015610643575f80fd5b505af1158015610655573d5f803e3d5ffd5b5050505050565b610664610dff565b7f000000000000000000000000000000000000000000000000000000000000000060405163040b850f60e31b81526001600160a01b03848116600483015260248201849052919091169063205c2878906044015f604051808303815f87803b1580156106ce575f80fd5b505af11580156106e0573d5f803e3d5ffd5b505050505050565b6001600160a01b037f00000000000000000000000000000000000000000000000000000000000000001630036107305760405162461bcd60e51b81526004016105169061210a565b7f00000000000000000000000000000000000000000000000000000000000000006001600160a01b03166107785f8051602061246a833981519152546001600160a01b031690565b6001600160a01b03161461079e5760405162461bcd60e51b815260040161051690612156565b6107a782610c8d565b6107b382826001610c95565b5050565b5f306001600160a01b037f000000000000000000000000000000000000000000000000000000000000000016146108565760405162461bcd60e51b815260206004820152603860248201527f555550535570677261646561626c653a206d757374206e6f742062652063616c60448201527f6c6564207468726f7567682064656c656761746563616c6c00000000000000006064820152608401610516565b505f8051602061246a83398151915290565b5f54610100900460ff161580801561088657505f54600160ff909116105b8061089f5750303b15801561089f57505f5460ff166001145b6109025760405162461bcd60e51b815260206004820152602e60248201527f496e697469616c697a61626c653a20636f6e747261637420697320616c72656160448201526d191e481a5b9a5d1a585b1a5e995960921b6064820152608401610516565b5f805460ff191660011790558015610923575f805461ff0019166101001790555b61092d8383611091565b8015610972575f805461ff0019169055604051600181527f7f26b83ff96e1f2b6a682f133852f6798a09c465da95921460cefb38474024989060200160405180910390a15b505050565b60605f7f8c92395cd5137e684e0c30ec0e205b7d938574a1858934265875d8bb4a472c0460405163459c3b7960e01b81526004810182905290915073__$3fef9df2457d5cac4efdb487fa63035151$__9063459c3b79906024015f60405180830381865af41580156109eb573d5f803e3d5ffd5b505050506040513d5f823e601f3d908101601f19168201604052610a1291908101906121a2565b91505090565b6040516370a0823160e01b81523060048201525f906001600160a01b037f000000000000000000000000000000000000000000000000000000000000000016906370a08231906024015b602060405180830381865afa158015610a7d573d5f803e3d5ffd5b505050506040513d601f19601f82011682018060405250810190610aa19190612236565b905090565b604051631aab3f0d60e11b81523060048201525f60248201819052906001600160a01b037f000000000000000000000000000000000000000000000000000000000000000016906335567e1a90604401610a62565b5f6001600160e01b03198216630a85bd0160e11b1480610b2b57506001600160e01b03198216630271189760e51b145b8061040157506001600160e01b031982166301ffc9a760e01b1492915050565b606083518551141580610b6c575082518451141580610b6c57508151835114155b15610b8a57604051633ff55f4d60e01b815260040160405180910390fd5b5f85516001600160401b03811115610ba457610ba4611a01565b604051908082528060200260200182016040528015610bd757816020015b6060815260200190600190039081610bc25790505b5090505f5b8651811015610c8357610c55878281518110610bfa57610bfa61224d565b6020026020010151878381518110610c1457610c1461224d565b6020026020010151878481518110610c2e57610c2e61224d565b6020026020010151878581518110610c4857610c4861224d565b602002602001015161102b565b828281518110610c6757610c6761224d565b6020026020010181905250610c7c8160010190565b9050610bdc565b5095945050505050565b6105b1610dff565b7f4910fdfa16fed3260ed0e7147f7cc6da11a60208b5b9406d12a635614ffd91435460ff1615610cc857610972836110c1565b826001600160a01b03166352d1902d6040518163ffffffff1660e01b8152600401602060405180830381865afa925050508015610d22575060408051601f3d908101601f19168201909252610d1f91810190612236565b60015b610d855760405162461bcd60e51b815260206004820152602e60248201527f45524331393637557067726164653a206e657720696d706c656d656e7461746960448201526d6f6e206973206e6f74205555505360901b6064820152608401610516565b5f8051602061246a8339815191528114610df35760405162461bcd60e51b815260206004820152602960248201527f45524331393637557067726164653a20756e737570706f727465642070726f786044820152681a58589b195555525160ba1b6064820152608401610516565b5061097283838361115c565b336001600160a01b037f00000000000000000000000000000000000000000000000000000000000000001614610e775760405162461bcd60e51b815260206004820152601c60248201527f6163636f756e743a206e6f742066726f6d20456e747279506f696e74000000006044820152606401610516565b565b5f610e8660416002612275565b610e9461014085018561228c565b610e9f9291506122e2565b15610eac57506001610401565b5f610eb960416002612275565b610ec761014086018661228c565b610ed29291506122f5565b9050610efc7f8c92395cd5137e684e0c30ec0e205b7d938574a1858934265875d8bb4a472c065490565b811015610f0d576001915050610401565b5f5b81811015610fd8575f610f3f610f26604184612275565b6041610f366101408a018a61228c565b90929091611186565b90505f610f98866040517f19457468657265756d205369676e6564204d6573736167653a0a3332000000006020820152603c81018290525f90605c01604051602081830303815290604052805190602001209050919050565b90505f610fa582846111f6565b9050610fb081610420565b610fc257600195505050505050610401565b5050508080610fd090612308565b915050610f0f565b505f949350505050565b80156105b1576040515f9033905f1990849084818181858888f193505050503d805f8114610655576040519150601f19603f3d011682016040523d82523d5f602084013e610655565b6060846110445761103d848484611218565b9050610418565b6004850361107557821561106b57604051635ac8313560e01b815260040160405180910390fd5b61103d8483611338565b604051631d60ecef60e21b815260048101869052602401610516565b5f54610100900460ff166110b75760405162461bcd60e51b815260040161051690612320565b6107b3828261142b565b6001600160a01b0381163b61112e5760405162461bcd60e51b815260206004820152602d60248201527f455243313936373a206e657720696d706c656d656e746174696f6e206973206e60448201526c1bdd08184818dbdb9d1c9858dd609a1b6064820152608401610516565b5f8051602061246a83398151915280546001600160a01b0319166001600160a01b0392909216919091179055565b6111658361145b565b5f825111806111715750805b1561097257611180838361149a565b50505050565b606083858184611196878361236b565b6111a0919061236b565b906111ab878561236b565b926111b89392919061237e565b8080601f0160208091040260200160405190810160405280939291908181526020018383808284375f92019190915250929998505050505050505050565b5f805f61120385856114bf565b9150915061121081611501565b509392505050565b606082471015611244576040516301bf351f60e31b815247600482015260248101849052604401610516565b826001600160a01b0385165f7f4810874456b8e6487bd861375cf6abd8e1c8bb5858c8ce36a86a04dabfac199e61127a866123a5565b6040516001600160e01b0319909116815260200160405180910390a45f80856001600160a01b031685856040516112b191906123dc565b5f6040518083038185875af1925050503d805f81146112eb576040519150601f19603f3d011682016040523d82523d5f602084013e6112f0565b606091505b509150915061132e82826040518060400160405280601681526020017522a9219b991aac1d102ab735b737bbb71022b93937b960511b81525061164a565b9695505050505050565b60605f6001600160a01b03841660047f4810874456b8e6487bd861375cf6abd8e1c8bb5858c8ce36a86a04dabfac199e611371866123a5565b6040516001600160e01b0319909116815260200160405180910390a45f80846001600160a01b0316846040516113a791906123dc565b5f60405180830381855af49150503d805f81146113df576040519150601f19603f3d011682016040523d82523d5f602084013e6113e4565b606091505b509150915061142282826040518060400160405280601681526020017522a9219b991aac1d102ab735b737bbb71022b93937b960511b81525061164a565b95945050505050565b5f54610100900460ff166114515760405162461bcd60e51b815260040161051690612320565b6107b38282611663565b611464816110c1565b6040516001600160a01b038216907fbc7cd75a20ee27fd9adebab32041f755214dbc6bffa90cc0225b39da2e5c2d3b905f90a250565b60606104c7838360405180606001604052806027815260200161248a60279139611717565b5f8082516041036114f3576020830151604084015160608501515f1a6114e787828585611781565b945094505050506114fa565b505f905060025b9250929050565b5f816004811115611514576115146123f7565b0361151c5750565b6001816004811115611530576115306123f7565b0361157d5760405162461bcd60e51b815260206004820152601860248201527f45434453413a20696e76616c6964207369676e617475726500000000000000006044820152606401610516565b6002816004811115611591576115916123f7565b036115de5760405162461bcd60e51b815260206004820152601f60248201527f45434453413a20696e76616c6964207369676e6174757265206c656e677468006044820152606401610516565b60038160048111156115f2576115f26123f7565b036105b15760405162461bcd60e51b815260206004820152602260248201527f45434453413a20696e76616c6964207369676e6174757265202773272076616c604482015261756560f01b6064820152608401610516565b606083156116595750816104c7565b6104c7838361183e565b5f54610100900460ff166116895760405162461bcd60e51b815260040161051690612320565b6040516305f101e560e21b81527f8c92395cd5137e684e0c30ec0e205b7d938574a1858934265875d8bb4a472c049073__$3fef9df2457d5cac4efdb487fa63035151$__906317c40794906116e69084908790879060040161240b565b5f6040518083038186803b1580156116fc575f80fd5b505af415801561170e573d5f803e3d5ffd5b50505050505050565b60605f80856001600160a01b03168560405161173391906123dc565b5f60405180830381855af49150503d805f811461176b576040519150601f19603f3d011682016040523d82523d5f602084013e611770565b606091505b509150915061132e86838387611868565b5f807f7fffffffffffffffffffffffffffffff5d576e7357a4501ddfe92f46681b20a08311156117b657505f90506003611835565b604080515f8082526020820180845289905260ff881692820192909252606081018690526080810185905260019060a0016020604051602081039080840390855afa158015611807573d5f803e3d5ffd5b5050604051601f1901519150506001600160a01b03811661182f575f60019250925050611835565b91505f90505b94509492505050565b81511561184e5781518083602001fd5b8060405162461bcd60e51b81526004016105169190611e8b565b606083156118d65782515f036118cf576001600160a01b0385163b6118cf5760405162461bcd60e51b815260206004820152601d60248201527f416464726573733a2063616c6c20746f206e6f6e2d636f6e74726163740000006044820152606401610516565b5081610418565b610418838361183e565b6001600160a01b03811681146105b1575f80fd5b5f8083601f840112611904575f80fd5b5081356001600160401b0381111561191a575f80fd5b6020830191508360208285010111156114fa575f80fd5b5f805f805f805f8060c0898b031215611948575f80fd5b8835611953816118e0565b97506020890135611963816118e0565b96506040890135611973816118e0565b95506060890135945060808901356001600160401b0380821115611995575f80fd5b6119a18c838d016118f4565b909650945060a08b01359150808211156119b9575f80fd5b506119c68b828c016118f4565b999c989b5096995094979396929594505050565b5f602082840312156119ea575f80fd5b81356001600160e01b0319811681146104c7575f80fd5b634e487b7160e01b5f52604160045260245ffd5b604051601f8201601f191681016001600160401b0381118282101715611a3d57611a3d611a01565b604052919050565b5f6001600160401b03821115611a5d57611a5d611a01565b5060051b60200190565b5f82601f830112611a76575f80fd5b81356020611a8b611a8683611a45565b611a15565b82815260059290921b84018101918181019086841115611aa9575f80fd5b8286015b84811015611ac45780358352918301918301611aad565b509695505050505050565b5f82601f830112611ade575f80fd5b81356020611aee611a8683611a45565b82815260059290921b84018101918181019086841115611b0c575f80fd5b8286015b84811015611ac4578035611b23816118e0565b8352918301918301611b10565b5f82601f830112611b3f575f80fd5b81356001600160401b03811115611b5857611b58611a01565b611b6b601f8201601f1916602001611a15565b818152846020838601011115611b7f575f80fd5b816020850160208301375f918101602001919091529392505050565b5f805f8060808587031215611bae575f80fd5b84356001600160401b0380821115611bc4575f80fd5b611bd088838901611a67565b9550602091508187013581811115611be6575f80fd5b611bf289828a01611acf565b955050604087013581811115611c06575f80fd5b611c1289828a01611a67565b945050606087013581811115611c26575f80fd5b8701601f81018913611c36575f80fd5b8035611c44611a8682611a45565b81815260059190911b8201840190848101908b831115611c62575f80fd5b8584015b83811015611c9957803586811115611c7d575f8081fd5b611c8b8e8983890101611b30565b845250918601918601611c66565b50989b979a50959850505050505050565b5f5b83811015611cc4578181015183820152602001611cac565b50505f910152565b5f8151808452611ce3816020860160208601611caa565b601f01601f19169290920160200192915050565b5f602080830181845280855180835260408601915060408160051b87010192508387015f5b82811015611d4a57603f19888603018452611d38858351611ccc565b94509285019290850190600101611d1c565b5092979650505050505050565b5f805f805f60808688031215611d6b575f80fd5b8535611d76816118e0565b94506020860135611d86816118e0565b93506040860135925060608601356001600160401b03811115611da7575f80fd5b611db3888289016118f4565b969995985093965092949392505050565b5f60208284031215611dd4575f80fd5b81356104c7816118e0565b5f805f60608486031215611df1575f80fd5b83356001600160401b03811115611e06575f80fd5b84016101608187031215611e18575f80fd5b95602085013595506040909401359392505050565b5f805f8060808587031215611e40575f80fd5b843593506020850135611e52816118e0565b92506040850135915060608501356001600160401b03811115611e73575f80fd5b611e7f87828801611b30565b91505092959194509250565b602081525f6104c76020830184611ccc565b5f8060408385031215611eae575f80fd5b8235611eb9816118e0565b946020939093013593505050565b5f8060408385031215611ed8575f80fd5b8235611ee3816118e0565b915060208301356001600160401b03811115611efd575f80fd5b611f0985828601611b30565b9150509250929050565b5f8060408385031215611f24575f80fd5b82356001600160401b03811115611f39575f80fd5b611f4585828601611acf565b95602094909401359450505050565b602080825282518282018190525f9190848201906040850190845b81811015611f945783516001600160a01b031683529284019291840191600101611f6f565b50909695505050505050565b5f8083601f840112611fb0575f80fd5b5081356001600160401b03811115611fc6575f80fd5b6020830191508360208260051b85010111156114fa575f80fd5b5f805f805f805f8060a0898b031215611ff7575f80fd5b8835612002816118e0565b97506020890135612012816118e0565b965060408901356001600160401b038082111561202d575f80fd5b6120398c838d01611fa0565b909850965060608b0135915080821115612051575f80fd5b61205d8c838d01611fa0565b909650945060808b01359150808211156119b9575f80fd5b5f805f805f8060a0878903121561208a575f80fd5b8635612095816118e0565b955060208701356120a5816118e0565b9450604087013593506060870135925060808701356001600160401b038111156120cd575f80fd5b6120d989828a016118f4565b979a9699509497509295939492505050565b5f602082840312156120fb575f80fd5b815180151581146104c7575f80fd5b6020808252602c908201527f46756e6374696f6e206d7573742062652063616c6c6564207468726f7567682060408201526b19195b1959d85d1958d85b1b60a21b606082015260800190565b6020808252602c908201527f46756e6374696f6e206d7573742062652063616c6c6564207468726f7567682060408201526b6163746976652070726f787960a01b606082015260800190565b5f60208083850312156121b3575f80fd5b82516001600160401b038111156121c8575f80fd5b8301601f810185136121d8575f80fd5b80516121e6611a8682611a45565b81815260059190911b82018301908381019087831115612204575f80fd5b928401925b8284101561222b57835161221c816118e0565b82529284019290840190612209565b979650505050505050565b5f60208284031215612246575f80fd5b5051919050565b634e487b7160e01b5f52603260045260245ffd5b634e487b7160e01b5f52601160045260245ffd5b808202811582820484141761040157610401612261565b5f808335601e198436030181126122a1575f80fd5b8301803591506001600160401b038211156122ba575f80fd5b6020019150368190038213156114fa575f80fd5b634e487b7160e01b5f52601260045260245ffd5b5f826122f0576122f06122ce565b500690565b5f82612303576123036122ce565b500490565b5f6001820161231957612319612261565b5060010190565b6020808252602b908201527f496e697469616c697a61626c653a20636f6e7472616374206973206e6f74206960408201526a6e697469616c697a696e6760a81b606082015260800190565b8181038181111561040157610401612261565b5f808585111561238c575f80fd5b83861115612398575f80fd5b5050820193919092039150565b805160208201516001600160e01b031980821692919060048310156123d45780818460040360031b1b83161693505b505050919050565b5f82516123ed818460208701611caa565b9190910192915050565b634e487b7160e01b5f52602160045260245ffd5b5f60608201858352602060608185015281865180845260808601915082880193505f5b818110156124535784516001600160a01b03168352938301939183019160010161242e565b505080935050505082604083015294935050505056fe360894a13ba1a3210667c828492db98dca3e2076cc3735a920a3ca505d382bbc416464726573733a206c6f772d6c6576656c2064656c65676174652063616c6c206661696c6564a26469706673582212202f268ce863c837293858be970dbbef242d7166b057ede00dc7672e3c72c3d63f64736f6c63430008140033",
    "linkReferences": {
      "src/ownership/OwnersLibrary.sol": {
        "OwnersLibrary": [
          {
            "start": 4194,
            "length": 20
          },
          {
            "start": 5547,
            "length": 20
          },
          {
            "start": 8881,
            "length": 20
          }
        ]
      }
    }
  },
  "methodIdentifiers": {
    "accountImplementation()": "11464fbe",
    "createAccount(address[],uint256,uint256)": "bdbce807",
    "getAddress(address[],uint256,uint256)": "7afc12ff"
  },
  "id": 65
}