{
  "abi": [
    {
      "inputs": [
        {
          "internalType": "address",
          "name": "owner",
          "type": "address"
        },
        {
          "internalType": "uint256",
          "name": "threshold",
          "type": "uint256"
        }
      ],
      "name": "addOwnerWithThreshold",
      "outputs": [],
      "stateMutability": "nonpayable",
      "type": "function"
    },
    {
      "inputs": [
        {
          "internalType": "uint256",
          "name": "threshold",
          "type": "uint256"
        }
      ],
      "name": "changeThreshold",
      "outputs": [],
      "stateMutability": "nonpayable",
      "type": "function"
    },
    {
      "inputs": [
        {
          "internalType": "address",
          "name": "prevOwner",
          "type": "address"
        },
        {
          "internalType": "address",
          "name": "owner",
          "type": "address"
        },
        {
          "internalType": "uint256",
          "name": "threshold",
          "type": "uint256"
        }
      ],
      "name": "removeOwner",
      "outputs": [],
      "stateMutability": "nonpayable",
      "type": "function"
    }
  ],
  "bytecode": {
    "object": "0x608060405234801561000f575f80fd5b5061031d8061001d5f395ff3fe608060405234801561000f575f80fd5b506004361061003f575f3560e01c80630d582f1314610043578063694e80c314610058578063f8dc5dd91461006b575b5f80fd5b61005661005136600461026f565b61007e565b005b610056610066366004610297565b61011d565b6100566100793660046102ae565b6101ac565b5f7f8c92395cd5137e684e0c30ec0e205b7d938574a1858934265875d8bb4a472c04604051632e72971f60e11b8152600481018290526001600160a01b03851660248201526044810184905290915073__$3fef9df2457d5cac4efdb487fa63035151$__90635ce52e3e906064015f6040518083038186803b158015610102575f80fd5b505af4158015610114573d5f803e3d5ffd5b50505050505050565b5f7f8c92395cd5137e684e0c30ec0e205b7d938574a1858934265875d8bb4a472c04604051634649b23560e11b8152600481018290526024810184905290915073__$3fef9df2457d5cac4efdb487fa63035151$__90638c93646a906044015f6040518083038186803b158015610192575f80fd5b505af41580156101a4573d5f803e3d5ffd5b505050505050565b5f7f8c92395cd5137e684e0c30ec0e205b7d938574a1858934265875d8bb4a472c0460405163a8ac496d60e01b8152600481018290526001600160a01b038087166024830152851660448201526064810184905290915073__$3fef9df2457d5cac4efdb487fa63035151$__9063a8ac496d906084015f6040518083038186803b158015610238575f80fd5b505af415801561024a573d5f803e3d5ffd5b5050505050505050565b80356001600160a01b038116811461026a575f80fd5b919050565b5f8060408385031215610280575f80fd5b61028983610254565b946020939093013593505050565b5f602082840312156102a7575f80fd5b5035919050565b5f805f606084860312156102c0575f80fd5b6102c984610254565b92506102d760208501610254565b915060408401359050925092509256fea2646970667358221220e056f11216067906d1c6a99c314389a5acdb7d60e4433a8b3bf9a41712fec3d364736f6c63430008140033",
    "linkReferences": {
      "src/ownership/OwnersLibrary.sol": {
        "OwnersLibrary": [
          {
            "start": 236,
            "length": 20
          },
          {
            "start": 380,
            "length": 20
          },
          {
            "start": 546,
            "length": 20
          }
        ]
      }
    }
  },
  "methodIdentifiers": {
    "addOwnerWithThreshold(address,uint256)": "0d582f13",
    "changeThreshold(uint256)": "694e80c3",
    "removeOwner(address,address,uint256)": "f8dc5dd9"
  },
  "id": 62
}